:1000000000308A004628000083168815831288195C
:100010001628A01220088316870083128716A013C3
:10002000200883168700831287132228A012200835
:100030008316870083128712A01320088316870077
:10004000831287138A110A127228831608168312E4
:10005000081A3728A01220088316870083128716F3
:10006000A013200883168700831287174328A01245
:1000700020088316870083128712A0132008831696
:100080008700831287138A110A1279288401831347
:100090001F308305831603170908C039890003132D
:1000A0001F129F12003003178800831287018801F6
:1000B0008901FF300313A0000030831686008700FB
:1000C0008312A000FF308316880000308312A00046
:1000D0008316870183128701831688158312881976
:1000E000732804286C28831608168312081A7A28A5
:0A00F0002528732883166528630095
:04400E00F22CFF3F52
:00000001FF
;PIC16F887
